S0150000544553542070726F6772616D652E7372656352
S11300000C942A000C9447000C9447000C9447006D
S11300100C9447000C9447000C9447000C94470040
S11300200C9447000C9447000C9447000C94470030
S11300300C9447000C9447000C9447000C94470020
S11300400C9447000C9447000C9447000C94470010
S11300500C94470011241FBECFE5D8E0DEBFCDBF0E
S113006010E0A0E6B0E0E4E8F9E002C005900D92EB
S1130070A036B107D9F710E0A0E6B0E001C01D92A8
S1130080A036B107E1F70E9480020C94C0040C94DE
S1130090000081E40E94FE000895CC24DD24760152
S11300A0C0E0D0E08824992454010CC081E448EED7
S11300B053E060E070E00E9409010894C11CD11C67
S11300C0E11CF11C85E0C816D104E104F10470F3CD
S11300D06E0181E44AEF50E060E070E00E94150197
S11300E00894C11CD11C85E0C816D10491F76E0197
S11300F081E44AEF50E060E070E00E94350108942A
S1130100C11CD11C85E0C816D10491F76E0181E4AD
S11301104AEF50E060E070E00E9454010894C11C72
S1130120D11C85E0C816D10491F76E0181E44AEF31
S113013050E060E070E00E948B010894C11CD11C67
S113014085E0C816D10491F76E0181E44AEF50E0CE
S113015060E070E00E94C1010894C11CD11C85E0DC
S1130160C816D10491F76E0181E44AEF50E060E0D3
S113017070E00E94F9010894C11CD11C85E0C816E6
S1130180D10491F76E0181E44AEF50E060E070E041
S11301900E941D020894C11CD11C85E0C816D1041C
S11301A091F7750164018ECF40E00E941803089511
S11301B00E94F6030895CF93DF93D82FC62F41E012
S11301C00E9487028D2F6C2F40E00E941803DF915C
S11301D0CF91089541E00E941803089540E00E94E1
S11301E0180308950E94A90308950E94A90383E2B5
S11301F094EF0197F1F700C000000895CF93C82F42
S11302006FEF0E943A048C2F60E00E945904CF9152
S113021008950E9499048FE39DE0A3E081509040EB
S1130220A040E1F700C000000895CF93DF93D82FDA
S1130230C0E06C2F61508D2F40E00E9418038D2F79
S11302406C2F41E00E94180383E294EF0197F1F7C9
S113025000C00000CF5FC83061F78D2F67E040E039
S11302600E941803DF91CF910895CF93DF93D82F85
S1130270C7E06C2F6F5F8D2F40E00E9418038D2F15
S11302806C2F41E00E94180383E294EF0197F1F789
S113029000C00000C15068F78D2F60E040E00E946C
S11302A01803DF91CF9108950F931F93CF93DF939A
S11302B0D82FC0E008E017E06C2F61508D2F40E08C
S11302C00E9418038D2F6C2F41E00E941803602FA9
S11302D06C1B8D2F40E00E941803612F6C1B8D2F27
S11302E041E00E94180383E294EF0197F1F700C004
S11302F00000CF5FC43001F78D2F63E040E00E941F
S113030018038D2F64E040E00E941803DF91CF9121
S11303101F910F9108950F931F93CF93DF93D82FBD
S1130320C3E006E017E06C2F6F5F8D2F40E00E9462
S11303301803602F6C1B8D2F40E00E9418038D2F33
S11303406C2F41E00E941803612F6C1B8D2F41E03C
S11303500E94180383E294EF0197F1F700C00000B4
S1130360C15008F78D2F60E040E00E9418038D2FE4
S113037067E040E00E941803DF91CF911F910F9135
S11303800895CF93DF93D82FC0E06C2F61508D2F49
S113039040E00E9418038D2F6C2F41E00E94180347
S11303A083E294EF0197F1F700C00000CF5FC730FC
S11303B061F78D2F66E040E00E9418036C2F6F5F99
S11303C08D2F40E00E9418038D2F6C2F41E00E9476
S11303D0180383E294EF0197F1F700C00000C150C5
S11303E069F78D2F61E040E00E941803DF91CF91FF
S11303F00895CF93DF93D82FC0E08D2F6C2F41E069
S11304000E94180383E294EF0197F1F700C0000003
S1130410CF5FC83091F7C0E08D2F6C2F40E00E9471
S1130420180383E294EF0197F1F700C00000CF5F57
S1130430C83091F7DF91CF9108950F931F93CF9315
S1130440DF93C82FD0E008E017E06D2F61508C2FA8
S113045040E00E9418038C2F6D2F41E00E94180386
S1130460602F6D1B8C2F40E00E941803612F6D1BC1
S11304708C2F41E00E94180383E294EF0197F1F777
S113048000C00000DF5FD43001F78C2F63E040E050
S11304900E9418038C2F63E040E00E941803D3E00D
S11304A006E017E06D2F6F5F8C2F40E00E94180369
S11304B0602F6D1B8C2F40E00E9418038C2F6D2F32
S11304C041E00E941803612F6D1B8C2F41E00E94B4
S11304D0180383E294EF0197F1F700C00000D150B4
S11304E008F78C2F60E040E00E9418038C2F67E02F
S11304F040E00E941803DF91CF911F910F9108955E
S11305000E9449000E944D0080E090E008958434E8
S113051009F471C0853448F4823499F1833408F0C5
S11305204DC0813409F083C00FC0823651F1833647
S113053020F4813609F07BC007C0833609F43EC03D
S1130540843609F074C057C0442369F02AB381E0AB
S113055090E0AC0102C0440F551F6A95E2F7BA015E
S1130560622B6ABB08952AB381E090E0AC0102C01B
S1130570440F551F6A95E2F7BA01609562236ABB7E
S11305800895442369F027B381E090E0AC0102C0F0
S1130590440F551F6A95E2F7BA01622B67BB0895B1
S11305A027B381E090E0AC0102C0440F551F6A9567
S11305B0E2F7BA016095622367BB0895442369F0AA
S11305C024B381E090E0AC0102C0440F551F6A954A
S11305D0E2F7BA01622B64BB089524B381E090E092
S11305E0AC0102C0440F551F6A95E2F7BA01609549
S11305F0622364BB0895442369F021B381E090E051
S1130600AC0102C0440F551F6A95E2F7BA01622B90
S113061061BB089521B381E090E0AC0102C0440FB6
S1130620551F6A95E2F7BA016095622361BB08958C
S1130630843409F471C0853448F4823499F18334E4
S113064008F04DC0813409F083C00FC0823651F1E7
S1130650833620F4813609F07BC007C0833609F461
S11306603EC0843609F074C057C0442369F02BB3EC
S113067081E090E0AC0102C0440F551F6A95E2F797
S1130680BA01622B6BBB08952BB381E090E0AC01FF
S113069002C0440F551F6A95E2F7BA0160956223C0
S11306A06BBB0895442369F028B381E090E0AC016A
S11306B002C0440F551F6A95E2F7BA01622B68BB6A
S11306C0089528B381E090E0AC0102C0440F551FA7
S11306D06A95E2F7BA016095622368BB08954423E2
S11306E069F025B381E090E0AC0102C0440F551FCE
S11306F06A95E2F7BA01622B65BB089525B381E0E0
S113070090E0AC0102C0440F551F6A95E2F7BA01AC
S11307106095622365BB0895442369F022B381E0A8
S113072090E0AC0102C0440F551F6A95E2F7BA018C
S1130730622B62BB089522B381E090E0AC0102C059
S1130740440F551F6A95E2F7BA016095622362BBB4
S11307500895843409F43DC0853440F48234F9F0BA
S1130760833450F5813409F040C00CC08236B9F0AE
S1130770833618F48136C9F505C08336E9F084362A
S1130780A1F527C02BB381E090E0AC0102C0440F77
S1130790551F6A95E2F7BA0162276BBB089528B327
S11307A081E090E0AC0102C0440F551F6A95E2F766
S11307B0BA01622768BB089525B381E090E0AC01DB
S11307C002C0440F551F6A95E2F7BA01622765BB60
S11307D0089522B381E090E0AC0102C0440F551F9C
S11307E06A95E2F7BA01622762BB08958434B1F1D5
S11307F0853438F48234E1F0833428F58134C1F54A
S11308000CC08236A9F0833618F4813689F505C008
S11308108336C9F0843661F521C029B330E0C901BB
S113082002C0959587956A95E2F7982F917020C03C
S113083026B330E0C90102C0959587956A95E2F721
S1130840982F917015C023B330E0C90102C095956B
S113085087956A95E2F7982F91700AC020B330E02B
S1130860C90102C0959587956A95E2F7982F917012
S1130870892F08958434D9F0853438F4823499F07A
S1130880833498F48134A1F40CC0823661F0833649
S113089018F4813669F405C0833639F0843641F49E
S11308A006C06ABB089567BB089564BB089561BB25
S11308B008958434D9F0853438F4823499F083343B
S11308C098F48134A1F40CC0823661F0833618F4B4
S11308D0813669F405C0833639F0843641F406C0A4
S11308E06BBB089568BB089568BB089562BB089507
S11308F08434D9F0853438F4823499F0833498F40C
S11309008134A1F40CC0823661F0833618F4813648
S113091069F405C0833639F0843641F406C099B3CE
S113092005C096B303C093B301C090B3892F90E080
S11309300895843409F1853438F48234A9F0833479
S1130940B8F48134E1F40CC0823671F0833618F4C3
S11309508136A9F405C0833659F0843681F40CC07D
S11309608BB380958BBB089588B3809588BB08951D
S113097085B3809585BB089582B3809582BB089525
S1070980F894FFCF15
S9030000FC
